{"project/contracts/ConfidentialSplitPay.sol":{"ConfidentialSplitPay":{"abi":[{"inputs":[],"name":"pctA","outputs":[{"internalType":"uint8","name":"","type":"uint8"}],"stateMutability":"view","type":"function"},{"inputs":[{"internalType":"bytes","name":"","type":"bytes"},{"internalType":"bytes","name":"","type":"bytes"}],"name":"setInputs","outputs":[],"stateMutability":"nonpayable","type":"function"},{"inputs":[{"internalType":"uint32","name":"_a","type":"uint32"},{"internalType":"uint32","name":"_b","type":"uint32"}],"name":"setInputsPlain","outputs":[],"stateMutability":"nonpayable","type":"function"},{"inputs":[],"name":"splitForA","outputs":[{"internalType":"bytes","name":"","type":"bytes"}],"stateMutability":"view","type":"function"},{"inputs":[],"name":"splitForB","outputs":[{"internalType":"bytes","name":"","type":"bytes"}],"stateMutability":"view","type":"function"}],"evm":{"bytecode":{"linkReferences":{},"object":"6080604052603c5f60086101000a81548160ff021916908360ff1602179055503480156029575f5ffd5b506106f2806100375f395ff3fe608060405234801561000f575f5ffd5b5060043610610055575f3560e01c806327e2e4cd1461005957806351d8edcf146100775780637fb7d04314610095578063b91621e8146100b1578063efac172e146100cd575b5f5ffd5b6100616100eb565b60405161006e91906102f7565b60405180910390f35b61007f610170565b60405161008c91906102f7565b60405180910390f35b6100af60048036038101906100aa9190610358565b6101f7565b005b6100cb60048036038101906100c691906103f7565b61023a565b005b6100d5610275565b6040516100e29190610490565b60405180910390f35b60605f5f60049054906101000a900463ffffffff165f5f9054906101000a900463ffffffff1661011b91906104d6565b90505f60645f60089054906101000a900460ff1660ff168361013d919061050d565b6101479190610576565b90508060405160200161015a91906105b5565b6040516020818303038152906040529250505090565b60605f5f60049054906101000a900463ffffffff165f5f9054906101000a900463ffffffff166101a091906104d6565b90505f6101ab6100eb565b8060200190518101906101be91906105e2565b90505f81836101cd919061060d565b9050806040516020016101e091906105b5565b604051602081830303815290604052935050505090565b815f5f6101000a81548163ffffffff021916908363ffffffff160217905550805f60046101000a81548163ffffffff021916908363ffffffff1602179055505050565b6040517f08c379a000000000000000000000000000000000000000000000000000000000815260040161026c9061069e565b60405180910390fd5b5f60089054906101000a900460ff1681565b5f81519050919050565b5f82825260208201905092915050565b8281835e5f83830152505050565b5f601f19601f8301169050919050565b5f6102c982610287565b6102d38185610291565b93506102e38185602086016102a1565b6102ec816102af565b840191505092915050565b5f6020820190508181035f83015261030f81846102bf565b905092915050565b5f5ffd5b5f5ffd5b5f63ffffffff82169050919050565b6103378161031f565b8114610341575f5ffd5b50565b5f813590506103528161032e565b92915050565b5f5f6040838503121561036e5761036d610317565b5b5f61037b85828601610344565b925050602061038c85828601610344565b9150509250929050565b5f5ffd5b5f5ffd5b5f5ffd5b5f5f83601f8401126103b7576103b6610396565b5b8235905067ffffffffffffffff8111156103d4576103d361039a565b5b6020830191508360018202830111156103f0576103ef61039e565b5b9250929050565b5f5f5f5f6040858703121561040f5761040e610317565b5b5f85013567ffffffffffffffff81111561042c5761042b61031b565b5b610438878288016103a2565b9450945050602085013567ffffffffffffffff81111561045b5761045a61031b565b5b610467878288016103a2565b925092505092959194509250565b5f60ff82169050919050565b61048a81610475565b82525050565b5f6020820190506104a35f830184610481565b92915050565b7f4e487b71000000000000000000000000000000000000000000000000000000005f52601160045260245ffd5b5f6104e08261031f565b91506104eb8361031f565b9250828201905063ffffffff811115610507576105066104a9565b5b92915050565b5f6105178261031f565b91506105228361031f565b92508282026105308161031f565b9150808214610542576105416104a9565b5b5092915050565b7f4e487b71000000000000000000000000000000000000000000000000000000005f52601260045260245ffd5b5f6105808261031f565b915061058b8361031f565b92508261059b5761059a610549565b5b828204905092915050565b6105af8161031f565b82525050565b5f6020820190506105c85f8301846105a6565b92915050565b5f815190506105dc8161032e565b92915050565b5f602082840312156105f7576105f6610317565b5b5f610604848285016105ce565b91505092915050565b5f6106178261031f565b91506106228361031f565b9250828203905063ffffffff81111561063e5761063d6104a9565b5b92915050565b5f82825260208201905092915050565b7f4d6f636b3a2075736520736574496e70757473506c61696e00000000000000005f82015250565b5f610688601883610644565b915061069382610654565b602082019050919050565b5f6020820190508181035f8301526106b58161067c565b905091905056fea2646970667358221220f38d12fdbde0211203ee055096cdc9b9eb9021446be9aa9da3441ccaa68f3fc864736f6c634300081c0033","opcodes":"PUSH1 0x80 PUSH1 0x40 MSTORE PUSH1 0x3C PUSH0 PUSH1 0x8 PUSH2 0x100 EXP DUP2 SLOAD DUP2 PUSH1 0xFF MUL NOT AND SWAP1 DUP4 PUSH1 0xFF AND MUL OR SWAP1 SSTORE POP CALLVALUE DUP1 ISZERO PUSH1 0x29 JUMPI PUSH0 PUSH0 REVERT JUMPDEST POP PUSH2 0x6F2 DUP1 PUSH2 0x37 PUSH0 CODECOPY PUSH0 RETURN INVALID PUSH1 0x80 PUSH1 0x40 MSTORE CALLVALUE DUP1 ISZERO PUSH2 0xF JUMPI PUSH0 PUSH0 REVERT JUMPDEST POP PUSH1 0x4 CALLDATASIZE LT PUSH2 0x55 JUMPI PUSH0 CALLDATALOAD PUSH1 0xE0 SHR DUP1 PUSH4 0x27E2E4CD EQ PUSH2 0x59 JUMPI DUP1 PUSH4 0x51D8EDCF EQ PUSH2 0x77 JUMPI DUP1 PUSH4 0x7FB7D043 EQ PUSH2 0x95 JUMPI DUP1 PUSH4 0xB91621E8 EQ PUSH2 0xB1 JUMPI DUP1 PUSH4 0xEFAC172E EQ PUSH2 0xCD JUMPI JUMPDEST PUSH0 PUSH0 REVERT JUMPDEST PUSH2 0x61 PUSH2 0xEB JUMP JUMPDEST PUSH1 0x40 MLOAD PUSH2 0x6E SWAP2 SWAP1 PUSH2 0x2F7 JUMP JUMPDEST PUSH1 0x40 MLOAD DUP1 SWAP2 SUB SWAP1 RETURN JUMPDEST PUSH2 0x7F PUSH2 0x170 JUMP JUMPDEST PUSH1 0x40 MLOAD PUSH2 0x8C SWAP2 SWAP1 PUSH2 0x2F7 JUMP JUMPDEST PUSH1 0x40 MLOAD DUP1 SWAP2 SUB SWAP1 RETURN JUMPDEST PUSH2 0xAF PUSH1 0x4 DUP1 CALLDATASIZE SUB DUP2 ADD SWAP1 PUSH2 0xAA SWAP2 SWAP1 PUSH2 0x358 JUMP JUMPDEST PUSH2 0x1F7 JUMP JUMPDEST STOP JUMPDEST PUSH2 0xCB PUSH1 0x4 DUP1 CALLDATASIZE SUB DUP2 ADD SWAP1 PUSH2 0xC6 SWAP2 SWAP1 PUSH2 0x3F7 JUMP JUMPDEST PUSH2 0x23A JUMP JUMPDEST STOP JUMPDEST PUSH2 0xD5 PUSH2 0x275 JUMP JUMPDEST PUSH1 0x40 MLOAD PUSH2 0xE2 SWAP2 SWAP1 PUSH2 0x490 JUMP JUMPDEST PUSH1 0x40 MLOAD DUP1 SWAP2 SUB SWAP1 RETURN JUMPDEST PUSH1 0x60 PUSH0 PUSH0 PUSH1 0x4 SWAP1 SLOAD SWAP1 PUSH2 0x100 EXP SWAP1 DIV PUSH4 0xFFFFFFFF AND PUSH0 PUSH0 SWAP1 SLOAD SWAP1 PUSH2 0x100 EXP SWAP1 DIV PUSH4 0xFFFFFFFF AND PUSH2 0x11B SWAP2 SWAP1 PUSH2 0x4D6 JUMP JUMPDEST SWAP1 POP PUSH0 PUSH1 0x64 PUSH0 PUSH1 0x8 SWAP1 SLOAD SWAP1 PUSH2 0x100 EXP SWAP1 DIV PUSH1 0xFF AND PUSH1 0xFF AND DUP4 PUSH2 0x13D SWAP2 SWAP1 PUSH2 0x50D JUMP JUMPDEST PUSH2 0x147 SWAP2 SWAP1 PUSH2 0x576 JUMP JUMPDEST SWAP1 POP DUP1 PUSH1 0x40 MLOAD PUSH1 0x20 ADD PUSH2 0x15A SWAP2 SWAP1 PUSH2 0x5B5 JUMP JUMPDEST PUSH1 0x40 MLOAD PUSH1 0x20 DUP2 DUP4 SUB SUB DUP2 MSTORE SWAP1 PUSH1 0x40 MSTORE SWAP3 POP POP POP SWAP1 JUMP JUMPDEST PUSH1 0x60 PUSH0 PUSH0 PUSH1 0x4 SWAP1 SLOAD SWAP1 PUSH2 0x100 EXP SWAP1 DIV PUSH4 0xFFFFFFFF AND PUSH0 PUSH0 SWAP1 SLOAD SWAP1 PUSH2 0x100 EXP SWAP1 DIV PUSH4 0xFFFFFFFF AND PUSH2 0x1A0 SWAP2 SWAP1 PUSH2 0x4D6 JUMP JUMPDEST SWAP1 POP PUSH0 PUSH2 0x1AB PUSH2 0xEB JUMP JUMPDEST DUP1 PUSH1 0x20 ADD SWAP1 MLOAD DUP2 ADD SWAP1 PUSH2 0x1BE SWAP2 SWAP1 PUSH2 0x5E2 JUMP JUMPDEST SWAP1 POP PUSH0 DUP2 DUP4 PUSH2 0x1CD SWAP2 SWAP1 PUSH2 0x60D JUMP JUMPDEST SWAP1 POP DUP1 PUSH1 0x40 MLOAD PUSH1 0x20 ADD PUSH2 0x1E0 SWAP2 SWAP1 PUSH2 0x5B5 JUMP JUMPDEST PUSH1 0x40 MLOAD PUSH1 0x20 DUP2 DUP4 SUB SUB DUP2 MSTORE SWAP1 PUSH1 0x40 MSTORE SWAP4 POP POP POP POP SWAP1 JUMP JUMPDEST DUP2 PUSH0 PUSH0 PUSH2 0x100 EXP DUP2 SLOAD DUP2 PUSH4 0xFFFFFFFF MUL NOT AND SWAP1 DUP4 PUSH4 0xFFFFFFFF AND MUL OR SWAP1 SSTORE POP DUP1 PUSH0 PUSH1 0x4 PUSH2 0x100 EXP DUP2 SLOAD DUP2 PUSH4 0xFFFFFFFF MUL NOT AND SWAP1 DUP4 PUSH4 0xFFFFFFFF AND MUL OR SWAP1 SSTORE POP POP POP JUMP JUMPDEST PUSH1 0x40 MLOAD PUSH32 0x8C379A000000000000000000000000000000000000000000000000000000000 DUP2 MSTORE PUSH1 0x4 ADD PUSH2 0x26C SWAP1 PUSH2 0x69E JUMP JUMPDEST PUSH1 0x40 MLOAD DUP1 SWAP2 SUB SWAP1 REVERT JUMPDEST PUSH0 PUSH1 0x8 SWAP1 SLOAD SWAP1 PUSH2 0x100 EXP SWAP1 DIV PUSH1 0xFF AND DUP2 JUMP JUMPDEST PUSH0 DUP2 MLOAD SWAP1 POP SWAP2 SWAP1 POP JUMP JUMPDEST PUSH0 DUP3 DUP3 MSTORE PUSH1 0x20 DUP3 ADD SWAP1 POP SWAP3 SWAP2 POP POP JUMP JUMPDEST DUP3 DUP2 DUP4 MCOPY PUSH0 DUP4 DUP4 ADD MSTORE POP POP POP JUMP JUMPDEST PUSH0 PUSH1 0x1F NOT PUSH1 0x1F DUP4 ADD AND SWAP1 POP SWAP2 SWAP1 POP JUMP JUMPDEST PUSH0 PUSH2 0x2C9 DUP3 PUSH2 0x287 JUMP JUMPDEST PUSH2 0x2D3 DUP2 DUP6 PUSH2 0x291 JUMP JUMPDEST SWAP4 POP PUSH2 0x2E3 DUP2 DUP6 PUSH1 0x20 DUP7 ADD PUSH2 0x2A1 JUMP JUMPDEST PUSH2 0x2EC DUP2 PUSH2 0x2AF JUMP JUMPDEST DUP5 ADD SWAP2 POP POP SWAP3 SWAP2 POP POP JUMP JUMPDEST PUSH0 PUSH1 0x20 DUP3 ADD SWAP1 POP DUP2 DUP2 SUB PUSH0 DUP4 ADD MSTORE PUSH2 0x30F DUP2 DUP5 PUSH2 0x2BF JUMP JUMPDEST SWAP1 POP SWAP3 SWAP2 POP POP JUMP JUMPDEST PUSH0 PUSH0 REVERT JUMPDEST PUSH0 PUSH0 REVERT JUMPDEST PUSH0 PUSH4 0xFFFFFFFF DUP3 AND SWAP1 POP SWAP2 SWAP1 POP JUMP JUMPDEST PUSH2 0x337 DUP2 PUSH2 0x31F JUMP JUMPDEST DUP2 EQ PUSH2 0x341 JUMPI PUSH0 PUSH0 REVERT JUMPDEST POP JUMP JUMPDEST PUSH0 DUP2 CALLDATALOAD SWAP1 POP PUSH2 0x352 DUP2 PUSH2 0x32E JUMP JUMPDEST SWAP3 SWAP2 POP POP JUMP JUMPDEST PUSH0 PUSH0 PUSH1 0x40 DUP4 DUP6 SUB SLT ISZERO PUSH2 0x36E JUMPI PUSH2 0x36D PUSH2 0x317 JUMP JUMPDEST JUMPDEST PUSH0 PUSH2 0x37B DUP6 DUP3 DUP7 ADD PUSH2 0x344 JUMP JUMPDEST SWAP3 POP POP PUSH1 0x20 PUSH2 0x38C DUP6 DUP3 DUP7 ADD PUSH2 0x344 JUMP JUMPDEST SWAP2 POP POP SWAP3 POP SWAP3 SWAP1 POP JUMP JUMPDEST PUSH0 PUSH0 REVERT JUMPDEST PUSH0 PUSH0 REVERT JUMPDEST PUSH0 PUSH0 REVERT JUMPDEST PUSH0 PUSH0 DUP4 PUSH1 0x1F DUP5 ADD SLT PUSH2 0x3B7 JUMPI PUSH2 0x3B6 PUSH2 0x396 JUMP JUMPDEST JUMPDEST DUP3 CALLDATALOAD SWAP1 POP PUSH8 0xFFFFFFFFFFFFFFFF DUP2 GT ISZERO PUSH2 0x3D4 JUMPI PUSH2 0x3D3 PUSH2 0x39A JUMP JUMPDEST JUMPDEST PUSH1 0x20 DUP4 ADD SWAP2 POP DUP4 PUSH1 0x1 DUP3 MUL DUP4 ADD GT ISZERO PUSH2 0x3F0 JUMPI PUSH2 0x3EF PUSH2 0x39E JUMP JUMPDEST JUMPDEST SWAP3 POP SWAP3 SWAP1 POP JUMP JUMPDEST PUSH0 PUSH0 PUSH0 PUSH0 PUSH1 0x40 DUP6 DUP8 SUB SLT ISZERO PUSH2 0x40F JUMPI PUSH2 0x40E PUSH2 0x317 JUMP JUMPDEST JUMPDEST PUSH0 DUP6 ADD CALLDATALOAD PUSH8 0xFFFFFFFFFFFFFFFF DUP2 GT ISZERO PUSH2 0x42C JUMPI PUSH2 0x42B PUSH2 0x31B JUMP JUMPDEST JUMPDEST PUSH2 0x438 DUP8 DUP3 DUP9 ADD PUSH2 0x3A2 JUMP JUMPDEST SWAP5 POP SWAP5 POP POP PUSH1 0x20 DUP6 ADD CALLDATALOAD PUSH8 0xFFFFFFFFFFFFFFFF DUP2 GT ISZERO PUSH2 0x45B JUMPI PUSH2 0x45A PUSH2 0x31B JUMP JUMPDEST JUMPDEST PUSH2 0x467 DUP8 DUP3 DUP9 ADD PUSH2 0x3A2 JUMP JUMPDEST SWAP3 POP SWAP3 POP POP SWAP3 SWAP6 SWAP2 SWAP5 POP SWAP3 POP JUMP JUMPDEST PUSH0 PUSH1 0xFF DUP3 AND SWAP1 POP SWAP2 SWAP1 POP JUMP JUMPDEST PUSH2 0x48A DUP2 PUSH2 0x475 JUMP JUMPDEST DUP3 MSTORE POP POP JUMP JUMPDEST PUSH0 PUSH1 0x20 DUP3 ADD SWAP1 POP PUSH2 0x4A3 PUSH0 DUP4 ADD DUP5 PUSH2 0x481 JUMP JUMPDEST SWAP3 SWAP2 POP POP JUMP JUMPDEST PUSH32 0x4E487B7100000000000000000000000000000000000000000000000000000000 PUSH0 MSTORE PUSH1 0x11 PUSH1 0x4 MSTORE PUSH1 0x24 PUSH0 REVERT JUMPDEST PUSH0 PUSH2 0x4E0 DUP3 PUSH2 0x31F JUMP JUMPDEST SWAP2 POP PUSH2 0x4EB DUP4 PUSH2 0x31F JUMP JUMPDEST SWAP3 POP DUP3 DUP3 ADD SWAP1 POP PUSH4 0xFFFFFFFF DUP2 GT ISZERO PUSH2 0x507 JUMPI PUSH2 0x506 PUSH2 0x4A9 JUMP JUMPDEST JUMPDEST SWAP3 SWAP2 POP POP JUMP JUMPDEST PUSH0 PUSH2 0x517 DUP3 PUSH2 0x31F JUMP JUMPDEST SWAP2 POP PUSH2 0x522 DUP4 PUSH2 0x31F JUMP JUMPDEST SWAP3 POP DUP3 DUP3 MUL PUSH2 0x530 DUP2 PUSH2 0x31F JUMP JUMPDEST SWAP2 POP DUP1 DUP3 EQ PUSH2 0x542 JUMPI PUSH2 0x541 PUSH2 0x4A9 JUMP JUMPDEST JUMPDEST POP SWAP3 SWAP2 POP POP JUMP JUMPDEST PUSH32 0x4E487B7100000000000000000000000000000000000000000000000000000000 PUSH0 MSTORE PUSH1 0x12 PUSH1 0x4 MSTORE PUSH1 0x24 PUSH0 REVERT JUMPDEST PUSH0 PUSH2 0x580 DUP3 PUSH2 0x31F JUMP JUMPDEST SWAP2 POP PUSH2 0x58B DUP4 PUSH2 0x31F JUMP JUMPDEST SWAP3 POP DUP3 PUSH2 0x59B JUMPI PUSH2 0x59A PUSH2 0x549 JUMP JUMPDEST JUMPDEST DUP3 DUP3 DIV SWAP1 POP SWAP3 SWAP2 POP POP JUMP JUMPDEST PUSH2 0x5AF DUP2 PUSH2 0x31F JUMP JUMPDEST DUP3 MSTORE POP POP JUMP JUMPDEST PUSH0 PUSH1 0x20 DUP3 ADD SWAP1 POP PUSH2 0x5C8 PUSH0 DUP4 ADD DUP5 PUSH2 0x5A6 JUMP JUMPDEST SWAP3 SWAP2 POP POP JUMP JUMPDEST PUSH0 DUP2 MLOAD SWAP1 POP PUSH2 0x5DC DUP2 PUSH2 0x32E JUMP JUMPDEST SWAP3 SWAP2 POP POP JUMP JUMPDEST PUSH0 PUSH1 0x20 DUP3 DUP5 SUB SLT ISZERO PUSH2 0x5F7 JUMPI PUSH2 0x5F6 PUSH2 0x317 JUMP JUMPDEST JUMPDEST PUSH0 PUSH2 0x604 DUP5 DUP3 DUP6 ADD PUSH2 0x5CE JUMP JUMPDEST SWAP2 POP POP SWAP3 SWAP2 POP POP JUMP JUMPDEST PUSH0 PUSH2 0x617 DUP3 PUSH2 0x31F JUMP JUMPDEST SWAP2 POP PUSH2 0x622 DUP4 PUSH2 0x31F JUMP JUMPDEST SWAP3 POP DUP3 DUP3 SUB SWAP1 POP PUSH4 0xFFFFFFFF DUP2 GT ISZERO PUSH2 0x63E JUMPI PUSH2 0x63D PUSH2 0x4A9 JUMP JUMPDEST JUMPDEST SWAP3 SWAP2 POP POP JUMP JUMPDEST PUSH0 DUP3 DUP3 MSTORE PUSH1 0x20 DUP3 ADD SWAP1 POP SWAP3 SWAP2 POP POP JUMP JUMPDEST PUSH32 0x4D6F636B3A2075736520736574496E70757473506C61696E0000000000000000 PUSH0 DUP3 ADD MSTORE POP JUMP JUMPDEST PUSH0 PUSH2 0x688 PUSH1 0x18 DUP4 PUSH2 0x644 JUMP JUMPDEST SWAP2 POP PUSH2 0x693 DUP3 PUSH2 0x654 JUMP JUMPDEST PUSH1 0x20 DUP3 ADD SWAP1 POP SWAP2 SWAP1 POP JUMP JUMPDEST PUSH0 PUSH1 0x20 DUP3 ADD SWAP1 POP DUP2 DUP2 SUB PUSH0 DUP4 ADD MSTORE PUSH2 0x6B5 DUP2 PUSH2 0x67C JUMP JUMPDEST SWAP1 POP SWAP2 SWAP1 POP JUMP INVALID LOG2 PUSH5 0x6970667358 0x22 SLT KECCAK256 RETURN DUP14 SLT REVERT 0xBD 0xE0 0x21 SLT SUB 0xEE SDIV POP SWAP7 0xCD 0xC9 0xB9 0xEB SWAP1 0x21 PREVRANDAO PUSH12 0xE9AA9DA3441CCAA68F3FC864 PUSH20 0x6F6C634300081C00330000000000000000000000 "},"methodIdentifiers":{"pctA()":"efac172e","setInputs(bytes,bytes)":"b91621e8","setInputsPlain(uint32,uint32)":"7fb7d043","splitForA()":"27e2e4cd","splitForB()":"51d8edcf"}}}}}